:020000040800F2
:10000000B806002091010008990100089B01000832
:100010009D0100089F010008A101000800000000E8
:10002000000000000000000000000000A301000824
:10003000A501000800000000A7010008391D000804
:10004000AB010008AB010008AB010008AB010008E0
:10005000AB010008AB010008AB010008AB010008D0
:10006000AB010008AB010008AB010008AB010008C0
:10007000AB010008AB010008AB010008AB010008B0
:10008000AB010008AB010008AB010008AB010008A0
:10009000AB010008AB010008AB010008AB01000890
:1000A000AB010008AB010008AB010008AB01000880
:1000B000AB010008AB010008AB010008AB01000870
:1000C000AB010008AB010008AB010008AB01000860
:1000D000AB010008AB01000875210008AB01000866
:1000E000AB010008AB010008AB01000800F002F80A
:1000F00000F03FF80AA090E8000C82448344AAF183
:100100000107DA4501D100F034F8AFF2090EBAE880
:100110000F0013F0010F18BFFB1A43F0010318473B
:100120004421000064210000103A24BF78C878C13F
:10013000FAD8520724BF30C830C144BF04680C60ED
:10014000704700000023002400250026103A28BF35
:1001500078C1FBD8520728BF30C148BF0B60704739
:10016000642900F08380002070471FB51FBD10B5C3
:1001700010BD00F036F91146FFF7F7FF02F002F864
:1001800000F054F903B4FFF7F2FF03BC00F058F994
:100190000948804709480047FEE7FEE7FEE7FEE71B
:1001A000FEE7FEE7FEE7FEE7FEE7FEE70448054957
:1001B000054A064B70470000911D0008ED0000083D
:1001C000B8000020B8060020B8020020B8020020C5
:1001D0000FB41CB50C0007AA009001D02044401EAB
:1001E000074B7B4469460190069800F0DAF8002C32
:1001F00003D06946002000F0E7F81CBC5DF814FB52
:10020000ED0100002DE9F0410E4604460020206279
:100210002046E168884730B3252805D0D4E901217C
:100220009047206A401CF2E7E16820460027884793
:10023000050018D0A5F14100192802D820354FF447
:1002400000673246294620462760FFF789FF40B104
:10025000012804D0F61D26F007060836D8E7361D1B
:10026000D6E72846DAE7206ABDE8F0812DE9F041BB
:100270000646002410687529314615A510D0AFF345
:100280000080002802DA404212A507E031688A07A0
:1002900001D511A502E0490704D510A5012401E00C
:1002A000AFF3008000210A2306F1240707E0B0FB2A
:1002B000F3F203FB1200303078541046491C00283A
:1002C000F5D123462A463046BDE8F04100F00BB890
:1002D000000000002D0000002B00000020000000A6
:1002E0007047704770472DE9F0470D469946924692
:1002F000044600F124080168880604D5E06921F06D
:100300001001216000E00120A84201DD471B00E050
:100310000027A1697A1902EB0900081AA061207868
:10032000C00602D42046AFF30080002608E0D4E9DE
:1003300001211AF806009047206A401C761C2062B2
:100340004E45F4DB2078C0060AD52046AFF3008086
:1003500006E0D4E9012130209047206A401C206249
:10036000381EA7F10107F4DC07E0D4E9012118F8F1
:1003700005009047206A401C2062281EA5F1010557
:10038000F3DC2046AFF300802078000602D502207F
:10039000BDE8F0870120FBE701694A1C026108788B
:1003A000704700B58FB0CDE90131002105910549B5
:1003B0007944CDE9031011466846FFF723FF0FB0DB
:1003C00000BD0000E5FFFFFF0A6802F8010B0A60AC
:1003D0007047D1E900239A4202D2531C0B6010707F
:1003E0007047754600F028F8AE460500694653464A
:1003F00020F00700854618B020B5FFF7D7FEBDE80E
:1004000020404FF000064FF000074FF000084FF07B
:10041000000B21F00701AC46ACE8C009ACE8C0090C
:10042000ACE8C009ACE8C0098D4670470446AFF39C
:1004300000802046FFF7A6FE0048704758000020C5
:1004400001491820ABBEFEE726000200704731B517
:10045000002400F0A5F9044600BF00F0A1F9001B3C
:1004600000998842F9D338BD2DE9F84703460024A6
:10047000002000258446002700226EE14FF001088D
:1004800008FA02F4D1F8008008EA0400A0427DD105
:10049000DFF8D0A2D1F80480A8EB0A09D0453AD001
:1004A00014DCB8F1030F50D009DCB8F1000F31D0E3
:1004B000B8F1010F1CD0B8F1020F49D120E0B8F11A
:1004C000110F18D0B8F1120F42D11EE0B9F5881FF4
:1004D00025D006DCB9F5803F20D0B9F5801F37D193
:1004E0001AE0B9F5001F18D0B9F5041F30D117E094
:1004F000D1F80CC02DE0D1F80C8008F1040C28E0F4
:10050000D1F80C8008F1080C23E0D1F80C8008F138
:100510000C0C1EE000BF00BF00BF00BF00BF00BF4B
:10052000D1F80880B8F1000F02D14FF0040C0BE0B5
:10053000D1F80880B8F1010F03D14FF0080C1C610D
:1005400002E04FF0080C5C6103E04FF0000C00E0AB
:1005500000BF00BFFF2801D8984601E003F104085E
:100560004646FF2802D84FEA820803E0A2F10808B5
:100570004FEA88084746D6F800804FF00F0909FA7D
:1005800007F928EA09080CFA07F900E088E048EAC8
:100590000908C6F80080D1F8048008F08058B8F146
:1005A000805F7DD100BFDFF8C081D8F8188048F0A7
:1005B0000108DFF8B491C9F81880C846D8F8188047
:1005C00008F00108CDF8008000BF00BF4FEAB9383D
:1005D0004FEA920958F829504FEA82784FEA187981
:1005E0004FF00F0808FA09F825EA0805DFF87C81C2
:1005F000434502D14FF0000816E0DFF8748143450F
:1006000002D14FF001080FE0DFF86881434502D1C5
:100610004FF0020808E0DFF86081434502D14FF057
:10062000030801E04FF004084FEA82794FEA197994
:1006300008FA09F848EA0505DFF840814FEA92090F
:1006400048F82950D1F8048008F48038B8F5803F84
:100650000AD1DFF82C81D8F8008048EA0008DFF8DA
:100660002091C9F8008009E0DFF81481D8F80080F3
:1006700028EA0008DFF80891C9F80080D1F8048062
:1006800008F40038B8F5003F10D1DFF8F48008F125
:100690000408D8F8008048EA0008DFF8E49000E099
:1006A0005AE009F10409C9F800800DE0DFF8D080B4
:1006B00008F10408D8F8008028EA0008DFF8C090A4
:1006C00009F10409C9F80080D1F8048008F4801801
:1006D000B8F5801F0ED1DFF8A88008F10808D8F817
:1006E000008048EA0008DFF8989009F10809C9F885
:1006F00000800DE0DFF8888008F10808D8F8008055
:1007000028EA0008DFF8789009F10809C9F80080A4
:10071000D1F8048008F40018B8F5001F0ED1DFF8F6
:10072000608008F10C08D8F8008048EA0008DFF87B
:10073000509009F10C09C9F800800DE0DFF8408005
:1007400008F10C08D8F8008028EA0008DFF830909B
:1007500009F10C09C9F80080521C102AFFF48EAE72
:10076000BDE8F887000011100010024000080140A9
:10077000000C01400010014000140140080001403D
:1007800000040140024693680B400BB1012000E0D9
:10079000002070470AB1016101E00B04036170475A
:1007A00001480068704700001400002002480068FB
:1007B000401C0149086070471400002010B508482B
:1007C000006840F0100006490860032000F08CF833
:1007D000002000F007F800F017F8002010BD00001E
:1007E0000020024070B5044600F0ACFA4FF47A7174
:1007F000B0FBF1F5284601F034F800222146501EE6
:1008000000F033F8002070BD08B500BF0E488069C5
:1008100040F001000C4988610846806900F0010041
:10082000009000BF00BF032000F05EF800221146D8
:10083000501E00F01AF80548406820F0E06040F0D3
:1008400000700249486008BD0010024000000140ED
:1008500000BF00F01F02012191404209920002F105
:10086000E022C2F8001100BF70472DE9F05F80461A
:100870000D461646002701F043FA074639462A4638
:10088000334601F00700C0F1070ABAF1040F02D99C
:100890004FF0040A01E0C0F1070AD14600F1040A52
:1008A000BAF1070F02D24FF0000A01E0A0F1030AEB
:1008B000D4464FF0010A0AFA09FAAAF1010A0AEA33
:1008C000020A0AFA0CFA4FF0010B0BFA0CFBABF11F
:1008D000010B0BEA030B4AEA0B042146404601F0E8
:1008E00017FABDE8F09F000000BF00F00702064BBA
:1008F00019684FF6FF031940044B0B4343EA0221EA
:10090000014B196000BF70470CED00E00000FA05D4
:1009100070B504460D460026F748006800F0070051
:10092000A84270D2F448006820F007002843F2493A
:1009300008600846006800F00700A84201D00120C6
:1009400070BD207800F00200022807D1EB48406813
:1009500020F0F000A1680843E8494860207800F0E2
:10096000010000286FD0606801282DD120200103EC
:1009700091FAA1F1B1FA81F108430121B1EB601FB5
:1009800002D1DE4800680FE02020010391FAA1F1B6
:10099000B1FA81F108430221B1EB601F02D1D748BF
:1009A000006A01E0D548406A20210A0392FAA2F2C7
:1009B000B2FA82F2114301F01F0201219140084076
:1009C000002861D10120BBE7606802282DD12020DA
:1009D000010591FAA1F1B1FA81F108430121B1EBCE
:1009E000601F02D1C548006810E02020010591FA7F
:1009F000A1F1B1FA81F108430221B1EB601F03D1EB
:100A0000BE48006A02E083E0BC48406A20210A0533
:100A100092FAA2F2B2FA82F2114301F01F0201210E
:100A20009140084078BB01208AE72020022191FAFA
:100A3000A1F1B1FA81F108430121B1EB601F03D1AB
:100A4000AE48006810E05BE12020022191FAA1F19C
:100A5000B1FA81F108430221B1EB601F02D1A7482E
:100A6000006A01E0A548406A2021022292FAA2F21F
:100A7000B2FA82F2114301F01F02012191400840B5
:100A800008B901205CE7FFE79C48406820F00300BC
:100A90006168084399494860FFF782FE064660682E
:100AA000012810D108E0FFF77BFE801B41F288315E
:100AB000884201D9032043E79048406800F00C00C9
:100AC0000428F0D11CE16068022810D108E0FFF78B
:100AD00067FE801B41F28831884201D903202FE74D
:100AE0008648406800F00C000828F0D108E108E0D2
:100AF000FFF756FE801B41F28831884201D903205E
:100B00001EE77E48406800F00C000028F0D1F7E0B6
:100B1000207800F00200022807D17848406820F0D1
:100B2000F000A168084375494860207800F0010092
:100B300000286ED0606801282CD12020010391FA92
:100B4000A1F1B1FA81F108430121B1EB601F02D19B
:100B50006A4800680FE02020010391FAA1F1B1FA80
:100B600081F108430221B1EB601F02D16348006AA2
:100B700001E06248406A20210A0392FAA2F2B2FA26
:100B800082F2114301F01F0201219140084088BB0D
:100B90000120D5E6606802282DD12020010591FAB8
:100BA000A1F1B1FA81F108430121B1EB601F02D13B
:100BB000524800680FE02020010591FAA1F1B1FA36
:100BC00081F108430221B1EB601F02D14B48006A5A
:100BD00001E04A48406A20210A0592FAA2F2B2FADC
:100BE00082F2114301F01F0201219140084008B92F
:100BF0000120A5E62DE02020022191FAA1F1B1FA11
:100C000081F108430121B1EB601F03D13B4800682B
:100C100010E061E02020022191FAA1F1B1FA81F106
:100C200008430221B1EB601F02D13448006A01E0A1
:100C30003248406A2021022292FAA2F2B2FA82F2EB
:100C4000114301F01F0201219140084008B9012021
:100C500076E62A48406820F0030061680843274987
:100C60004860FFF79DFD06466068012810D108E046
:100C7000FFF796FD801B41F28831884201D903209D
:100C80005EE61E48406800F00C000428F0D123E026
:100C90006068022810D108E0FFF782FD801B41F256
:100CA0008831884201D903204AE61448406800F0A0
:100CB0000C000828F0D10FE008E0FFF771FD801B61
:100CC00041F28831884201D9032039E60B48406857
:100CD00000F00C000028F0D10748006820F0070061
:100CE0002843054908600846006800F00700A8424C
:100CF00006D0012024E6000000200240001002403F
:100D0000207800F00400042807D10D48406820F442
:100D1000E060E16808430A494860207800F0080074
:100D2000082808D10648406820F46050216940EA4C
:100D3000C100034948600020FFF754FD0020FFE593
:100D40000010024010B500F045F80949496801F06B
:100D5000F001F02292FAA2F2B2FA82F2D140054AF0
:100D6000515CC840044908600846006810BD000096
:100D700000100240542200080000002010B5FFF7C8
:100D8000E1FF0749496801F4E0614FF4E06292FA3B
:100D9000A2F2B2FA82F2D140024A515CC84010BDC0
:100DA000001002405422000810B5FFF7CBFF07499E
:100DB000496801F460514FF4605292FAA2F2B2FA1B
:100DC00082F2D140024A515CC84010BD001002407E
:100DD00054220008F0B585B00FF28C0C9CE8E010AE
:100DE00001A8A0E8E01024A52D68009500210024AA
:100DF000002200230020214D696801F00C056DB32D
:100E0000042D02D0082D28D101E01D4828E001F46E
:100E100070154FF4701696FAA6F6B6FA86F6F540F7
:100E200001AE735D01F4803595B1144D6D6805F424
:100E300000354FF4003696FAA6F6B6FA86F6F54077
:100E40001DF805400E4DB5FBF4F505FB03F202E07D
:100E50000C4D03FB05F2104602E000BF084800BF3E
:100E600000BF05B0F0BD0000020304050607080935
:100E70000A0B0C0D0E0F10100102000000100240B2
:100E800000127A0000093D0038B50446002520789C
:100E900000F0010000286ED0F748406800F00C0018
:100EA00004280CD0F448406800F00C0008283AD11F
:100EB000F148406800F48030B0F5803F33D1202005
:100EC000010391FAA1F1B1FA81F108430121B1EBDB
:100ED000601F02D1E84800680FE02020010391FA6A
:100EE000A1F1B1FA81F108430221B1EB601F02D1F7
:100EF000E148006A01E0E048406A20210A0392FAD2
:100F0000A2F2B2FA82F2114301F01F0201219140D4
:100F100008400028BFD060680128BCD06068052860
:100F2000B9D0012038BD00BFD348006820F480301C
:100F3000D14908600846006820F48020086000BF9E
:100F4000FFF72EFC054608E0FFF72AFC401B41F2A4
:100F50008831884201D90320E4E72020010391FA77
:100F6000A1F1B1FA81F108430121B1EB601F03D176
:100F7000C148006810E0B6E02020010391FAA1F119
:100F8000B1FA81F108430221B1EB601F02D1BA48E6
:100F9000006A01E0B848406A20210A0392FAA2F2EE
:100FA000B2FA82F2114301F01F0201219140084080
:100FB0000028C9D100BFB048006820F48030AE4995
:100FC0000860606801280AD10846006820F4802083
:100FD00008600846006840F4803008600CE06068F3
:100FE000052803D12079A449887005E0A24800684B
:100FF00020F48020A049086000BF6068C8B3FFF7F4
:10100000CFFB054608E0FFF7CBFB401B41F28831E0
:10101000884201D9032085E72020010391FAA1F13C
:10102000B1FA81F108430121B1EB601F02D192486E
:1010300000680FE02020010391FAA1F1B1FA81F1DB
:1010400008430221B1EB601F02D18B48006A01E026
:101050008948406A20210A0392FAA2F2B2FA82F287
:10106000114301F01F020121914008400028CAD01D
:1010700039E0FFE7FFF794FB054608E0FFF790FB38
:10108000401B41F28831884201D903204AE72020E1
:10109000010391FAA1F1B1FA81F108430121B1EB09
:1010A000601F02D1744800680FE02020010391FA0C
:1010B000A1F1B1FA81F108430221B1EB601F02D125
:1010C0006D48006A01E06C48406A20210A0392FAE8
:1010D000A2F2B2FA82F2114301F01F020121914003
:1010E00008400028CAD1207800F0020002284ED122
:1010F0006148406800F00C0050B15F48406800F063
:101100000C00082844D15C48406800F4803078BB6B
:101110002020022191FAA1F1B1FA81F108430121C5
:10112000B1EB601F02D1544800680FE0202002217B
:1011300091FAA1F1B1FA81F108430221B1EB601FEC
:1011400002D14D48006A01E04B48406A202102224A
:1011500092FAA2F2B2FA82F2114301F01F020121C7
:101160009140084028B12069012802D00120D9E629
:101170000EE04148006820F0F800F82292FAA2F24E
:10118000B2FA82F26169914008433B49086095E0F8
:10119000206970B3012191FAA1F0B0FA80F0374ACA
:1011A00042F82010FFF7FCFA054606E0FFF7F8FAD0
:1011B000401B642801D90320B4E62020022191FAC3
:1011C000A1F1B1FA81F108430121B1EB601F02D115
:1011D0002948006810E02020022191FAA1F1B1FA1B
:1011E00081F108430221B1EB601F03D12248006A5C
:1011F00002E01EE02048406A2021022292FAA2F278
:10120000B2FA82F2114301F01F020121914008401D
:101210000028CBD01848006820F0F800F82292FA95
:10122000A2F2B2FA82F26169914008431249086061
:1012300044E00020012191FAA1F1B1FA81F10F4AB5
:1012400042F82100FFF7ACFA054606E0FFF7A8FADE
:10125000401B642801D9032064E62020022191FA72
:10126000A1F1B1FA81F108430121B1EB601F07D16F
:101270000148006814E000000010024000004242F3
:101280002020022191FAA1F1B1FA81F10843022153
:10129000B1EB601F02D1F948006A01E0F748406AEB
:1012A0002021022292FAA2F2B2FA82F2114301F054
:1012B0001F020121914008400028C7D1207800F08A
:1012C0000800082846D1A06980B3012090FAA0F157
:1012D000B1FA81F1EA4A02EB8101C1F88004FFF71B
:1012E0005FFA054606E0FFF75BFA401B642801D968
:1012F000032017E66020022191FAA1F1B1FA81F1F1
:1013000008430121B1EB601F02D1DC48006810E006
:101310006020022191FAA1F1B1FA81F10843022182
:10132000B1EB601F03D1D548006A02E013E0D34857
:10133000406A6021022292FAA2F2B2FA82F21143CA
:1013400001F01F020121914008400028CBD001206C
:10135000FFF77DF841E00020012191FAA1F1B1FAF7
:1013600081F1C74A02EB8101C1F88004FFF718FA46
:10137000054606E0FFF714FA401B642801D9032054
:10138000D0E56020022191FAA1F1B1FA81F1084380
:101390000121B1EB601F02D1B84800680FE0602066
:1013A000022191FAA1F1B1FA81F108430221B1EBD6
:1013B000601F02D1B148006A01E0B048406A602174
:1013C000022292FAA2F2B2FA82F2114301F01F0253
:1013D0000121914008400028CCD1207800F0040081
:1013E00004287CD100BFA548C06940F08050A349C3
:1013F000C8610846C06900F08050009000BF00BF7F
:10140000A048006840F480709E490860FFF7C8F962
:10141000054606E0FFF7C4F9401B642801D9032004
:1014200080E59848006800F480700028F2D000BF82
:101430000020012191FAA1F1B1FA81F1904A02EB69
:101440008101C1F800040021042090FAA0F0B0FA54
:1014500080F002EB8000C0F8001400BFFFF7A0F995
:10146000054608E0FFF79CF9401B41F288318842AD
:1014700001D9032056E54020022191FAA1F1B1FAE9
:1014800081F108430121B1EB601F02D17B48006864
:101490000FE04020022191FAA1F1B1FA81F1084355
:1014A0000221B1EB601F02D17448006A01E0734869
:1014B000406A4021022292FAA2F2B2FA82F2114369
:1014C00001F01F020121914008400028CAD100BF4D
:1014D000E068B0B90020012191FAA1F100E0B4E088
:1014E000B1FA81F1664A02EB8101C1F800040421DE
:1014F00091FAA1F1B1FA81F102EB8101C1F8000486
:101500002CE0E068012814D10020042191FAA1F117
:10151000B1FA81F15A4A02EB8101C1F800040121BC
:1015200091FAA1F0B0FA80F002EB8000C0F800144C
:1015300014E00020012191FAA1F1B1FA81F1504AA1
:1015400002EB8101C1F800040121042090FAA0F00F
:10155000B0FA80F002EB8000C0F8001400BFE06831
:10156000012839D1FFF71CF9054608E0FFF718F903
:10157000401B41F28831884201D90320D2E4402047
:10158000022191FAA1F1B1FA81F108430121B1EBF5
:10159000601F02D1394800680FE04020022191FA13
:1015A000A1F1B1FA81F108430221B1EB601F02D130
:1015B0003248006A01E03148406A4021022292FA32
:1015C000A2F2B2FA82F2114301F01F02012191400E
:1015D00008400028CAD038E0FFF7E2F8054608E0E6
:1015E000FFF7DEF8401B41F28831884201D9032021
:1015F00098E44020022191FAA1F1B1FA81F1084367
:101600000121B1EB601F02D11C4800680FE04020AF
:10161000022191FAA1F1B1FA81F108430221B1EB63
:10162000601F02D11548006A01E01448406A402159
:10163000022292FAA2F2B2FA82F2114301F01F02E0
:101640000121914008400028CAD1E069002871D0EA
:101650000A48406800F00C0008286CD0E0690228B5
:101660006AD10021C00590FAA0F0B0FA80F0044AD7
:1016700042F82010FFF794F805460CE000100240F5
:101680000000424200700040FFF78AF8401B6428C7
:1016900001D9032046E42020010591FAA1F1B1FA15
:1016A00081F108430121B1EB601F02D1604800685D
:1016B0000FE02020010591FAA1F1B1FA81F1084370
:1016C0000221B1EB601F02D15948006A01E058487D
:1016D000406A20210A0592FAA2F2B2FA82F211437C
:1016E00001F01F020121914008400028CCD1206A5E
:1016F000B0F5803F07D14E48406820F40030A16823
:1017000008434B494860D4E90801084348494968FF
:1017100021F474110843464948600120010691FAFA
:10172000A1F1B1FA81F1434A42F82100FFF738F8FC
:10173000054609E079E076E033E0FFF731F8401B39
:10174000642801D9032007E42020010591FAA1F1C2
:10175000B1FA81F108430121B1EB601F02D1344895
:1017600000680FE02020010591FAA1F1B1FA81F1A2
:1017700008430221B1EB601F02D12D48006A01E04D
:101780002B48406A20210A0592FAA2F2B2FA82F2AC
:10179000114301F01F020121914008400028CCD0E4
:1017A00043E000204FF0807191FAA1F1B1FA81F18C
:1017B000204A42F82100FEF7F3FF054606E0FEF757
:1017C000EFFF401B642801D9032024E420200105F9
:1017D00091FAA1F1B1FA81F108430121B1EB601F47
:1017E00002D1134800680FE02020010591FAA1F111
:1017F000B1FA81F108430221B1EB601F02D10C481C
:10180000006A01E00A48406A20210A0592FAA2F221
:10181000B2FA82F2114301F01F0201219140084007
:101820000028CCD101E0012030E400202EE40000AB
:101830000010024000004242042808D14FF0E0218D
:10184000096941F004014FF0E022116107E04FF017
:10185000E021096921F004014FF0E0221161704795
:10186000704770B504462546681EB0F1807F01D3ED
:1018700001200FE0681E4FF0E02148610F214FF07A
:10188000FF3000F045FA00204FF0E021886107208A
:101890000861002070BD10B5FFF7E2FF10BD704772
:1018A000F8B50446002500262068006800F0010510
:1018B0002068C06800F480766DB166B100BF206812
:1018C0000068009020684068009000BF00BFE06B97
:1018D00040F00100E06320680068C0F34005206824
:1018E000406900F001066DB166B100BF2068006874
:1018F000009020684068009000BF00BFE06B40F09F
:101900000400E06320680068C0F380056DB166B133
:1019100000BF20680068009020684068009000BF09
:1019200000BFE06B40F00200E06320680068C0F395
:10193000C0056DB166B100BF2068006800902068E6
:101940004068009000BF00BFE06B40F00800E0631B
:1019500020680068C0F340152068C06800F02006C9
:101960001DB116B1204600F05DFA20680068C0F392
:10197000C0152068C06800F080061DB116B1204671
:1019800000F042FB20680068C0F380152068C06842
:1019900000F040061DB116B1204600F025FAE06BBC
:1019A00028B1012084F839002046FFF778FFF8BD00
:1019B00010B504460CB9012010BDA06900B100E0CB
:1019C00000BF94F8390028B9002084F83800204678
:1019D00000F026F8022084F839002068C06820F45E
:1019E00000502168C860204600F07AFA206800693B
:1019F00020F49040216808612068406920F02A00A6
:101A0000216848612068C06840F400502168C860BF
:101A10000020E063012084F839000020CCE70000BA
:101A200010B586B0044617492068884228D100BF07
:101A30001548C06940F400301349C8610846C069C0
:101A400000F40030019000BF00BF0420029002208B
:101A500003900320059002A90C48FEF705FD08201D
:101A6000029000200390049002A90848FEF7FCFCB5
:101A7000002211462620FEF7F8FE2620FEF7E8FE9B
:101A800006B010BD004400400010024000080140B4
:101A90002DE9F04704460D46164699464FF00008DA
:101AA00094F83980B8F1010F02D0B8F1120F69D162
:101AB00005B116B90120BDE8F08700BF94F83800E1
:101AC000012801D10220F6E7012084F8380000BF88
:101AD0000020E06394F83900122803D1322084F802
:101AE000390002E0222084F83900A685E68535E039
:101AF000E08D401EE085A068B0F5805F18D14B46B0
:101B000000222021204600F0B7FA08B10320D2E7D6
:101B10002F46206930B920684068C0F3080038803B
:101B2000AD1C1BE020684068C0B238806D1C15E019
:101B30004B4600222021204600F09EFA08B10320E7
:101B4000B9E7206920B92068406805F8010B05E075
:101B50002068406800F07F0005F8010BE08D002848
:101B6000C6DC94F83900322803D1122084F83900F9
:101B700002E0012084F8390000BF002084F838001A
:101B800000BF98E7022096E770472DE9F04704462A
:101B90000D46164699464FF0000894F83980B8F182
:101BA000010F02D0B8F1220F65D105B116B901209D
:101BB000BDE8F08700BF94F83800012801D1022069
:101BC000F6E7012084F8380000BF0020E06394F8B5
:101BD0003900222803D1322084F8390002E0122093
:101BE00084F83900A684E68428E0E08C401EE08476
:101BF000A068B0F5805F14D14B46002280212046BA
:101C000000F03AFA08B10320D2E72F463888C0F333
:101C1000080021684860206908B9AD1C0EE06D1C01
:101C20000CE04B4600228021204600F025FA08B146
:101C30000320BDE715F8010B21684860E08C0028FF
:101C4000D3DC4B4600224021204600F015FA08B1B3
:101C50000320ADE794F83900322803D1222084F81C
:101C6000390002E0012084F8390000BF002084F828
:101C7000380000BF9CE702209AE7704700B585B0A6
:101C800000BF1148806940F004000F498861084690
:101C9000806900F00400009000BF00BF881501902B
:101CA000012002900220049001A90848FEF7DCFB05
:101CB0004FF48050019000200290039001A9034846
:101CC000FEF7D2FB05B000BD001002400008014045
:101CD00010B50948094908604FF4E1304860002117
:101CE00006488160C16001610C2141610021816170
:101CF000C161FFF75DFE10BD0044004018000020E8
:101D000002480068C0F30220704700000CED00E0BC
:101D100010B5002807DA0A07140E054A00F00F0371
:101D20001B1FD45403E00A07130E024A135410BDBC
:101D300018ED00E000E400E010B5FEF737FDFFF716
:101D4000AAFD10BD10B590B00220069001200A90A7
:101D500010200B9000200D9006A8FFF795F80120A9
:101D6000019000200290039004900590002101A8AA
:101D7000FEF7CEFDFEF7E6FF4FF47A71B0FBF1F40B
:101D80002046FFF76EFD0420FFF756FD10B010BD92
:101D90001148006840F001000F490860084640689B
:101DA0000E4908400C494860084600680C49084044
:101DB000094908600846006820F480200860084649
:101DC000406820F4FE0048604FF41F008860C8039C
:101DD0000449086070470000001002400000FFF84E
:101DE000FFFFF6FE08ED00E010B504462068C0686D
:101DF00020F040002168C86094F83900322803D1EF
:101E0000222084F8390008E02068406920F00100B1
:101E100021684861012084F839002046FFF72DFF32
:101E2000002010BD70B50446002694F83960222EBB
:101E300001D0322E52D1A068B0F5805F13D1A56ACF
:101E4000206940B920684068C0F308002880A06A73
:101E5000801CA06219E020684068C0B22880A06A97
:101E6000401CA06211E0206938B920684068C1B206
:101E7000A26A501CA062117007E02068406800F060
:101E80007F01A26A501CA0621170E08D401E80B2DA
:101E9000E08508BB2068C06820F020002168C86089
:101EA00094F83900322803D1122084F839000EE06A
:101EB0002068C06820F480702168C860206840698C
:101EC00020F0010021684861012084F83900204693
:101ED000FFF75AFE002070BD0020FCE70220FAE761
:101EE0002DE9F041044600252068006920F44050A7
:101EF000E1680843216808612169A06808436169B5
:101F000040EA01052068C06841F20C61884328431B
:101F10002168C8602068406920F44070A1690843C6
:101F20002168486137492068884234D1FEF73CFF78
:101F300000EBC00101EB001061688900B0FBF1F01B
:101F40006421B0FBF1F6FEF72FFF00EBC00101EBBF
:101F5000001061688900B0FBF1F7FEF725FF00EB88
:101F6000C00101EB001061688900B0FBF1F0642151
:101F7000B0FBF1F000EBC00101EB0010A7EB80001B
:101F8000322101EB00106421B0FBF1F066F31F1069
:101F90002168886033E0FEF7F1FE00EBC00101EB41
:101FA000001061688900B0FBF1F06421B0FBF1F62C
:101FB000FEF7E4FE00EBC00101EB00106168890050
:101FC000B0FBF1F7FEF7DAFE00EBC00101EB001009
:101FD00061688900B0FBF1F06421B0FBF1F000EB27
:101FE000C00101EB0010A7EB8000322101EB0010D3
:101FF0006421B0FBF1F066F31F1021688860BDE832
:10200000F08100000038014010B50146002391F82E
:102010003930122B01D0322B2CD18868B0F5805F7B
:102020000FD10A6A1088C0F308000C686060086964
:1020300018B9086A801C086209E0086A401C086236
:1020400005E00C6A601C086220780C686060C88C2F
:10205000401E80B2C88458B90868C06820F080006B
:102060000C68E0600868C06840F040000C68E06000
:10207000002010BD0220FCE72DE9F04104460E4689
:1020800017461D464FF00008FEF78AFB80469FBBAF
:102090002BE0681C48B32DB1FEF782FBA0EB0800D3
:1020A000A84222D92068C06820F080002168C8605A
:1020B0002068C06820F020002168C8602068C068DF
:1020C00020F480702168C8602068406920F0010019
:1020D00021684861012084F8390000BF002084F89D
:1020E000380000BF0320BDE8F08120680068304060
:1020F000B04202D1012001E003E000200028C8D056
:1021000035E02AE0681C40B32DB1FEF749FBA0EB97
:102110000800A84221D92068C06820F0800021680A
:10212000C8602068C06820F020002168C86020686E
:10213000C06820F480702168C8602068406920F081
:10214000010021684861012084F8390000BF0020A7
:1021500084F8380000BF0320C5E7206800683040DD
:10216000B04201D1012000E000200028CAD10020A7
:10217000B9E7000010B50248FFF792FB10BD000060
:102180001800002086B0FEF719FBFEF717FBFFF7DB
:10219000D9FDFFF773FDFFF79BFD012211022848CF
:1021A000FEF7F8FA4AE04FF6FF73012205A9254829
:1021B000FFF76EFC06E04FF6FF73012205A92148E8
:1021C000FFF766FCBDF814000028F4D0002704E0F7
:1021D0004FF47A70FEF73BF97F1C032FF8DB4FF4C6
:1021E00080511748FEF7CEFA8046FEF7D9FA04462A
:1021F0000BE04FF480511248FEF7C4FA80460022EB
:102200004FF480710E48FEF7C5FAB8F1000FF0D018
:10221000012211020A48FEF7BDFAFEF7C1FA05468F
:102220002E1B334608A214216846FDF7D1FF4FF656
:10223000FF73142269460348FFF7A7FCB3E70000C9
:1022400000080140180000207265706F72743A2512
:10225000640D0A00000000000102030401020304EF
:10226000060708098422000800000020180000006A
:10227000280100089C22000818000020A006000089
:102280004401000800A24A04000000000000000011
:0C2290000102030406070809000000001A
:04000005080000ED02
:00000001FF
